:100000000C9465020C94A9020C94A9020C94A90208
:100010000C94A9020C94A9020C94A9020C94A902B4
:100020000C94A9020C94A9020C946B0C0C943D0D39
:100030000C94A9020C94A9020C94A9020C94A90294
:100040000C94A9020C9411220C94A9020C94A902FC
:100050000C94A9020C94B51B0C94A9020C94A9024F
:100060000C94A9020C94A9020C94A9020C94A90264
:100070000C94A9020C94A9020C94A9020C94A90254
:100080000C94A9020C94A9020C94A9020C94A90244
:100090000C94A9020C94A9020C94A9020C94A90234
:1000A0000C94A9020C94A9020C94A902A20DC40DEF
:1000B000AF0EC40DAF0E060E290EAF0E7E0E910EC2
:1000C0008B118B11CC11CC110E124A124A144A1406
:1000D00062124A145913591324144A144A14381436
:1000E0000000F0A12E004C002A00E1003581000044
:1000F0001E00140004001D7134004D001F001A0082
:1001000015001B00E1042E722000090016000600F5
:1001100050002C7421001300170019004F004A00F2
:1001200022000A0007000500000065745000025418
:100130000000007F0000E3004F0001540000007742
:100140000000E20023000D000B000E0000002971EA
:1001500024000F001100100052004B002500180071
:10016000080036005100288126001C000C003700D2
:100170002F002B71270033001200387130004E0021
:100180002D0031003478E500C100000001000100BD
:1001900001000100010000003A001E0220022202BC
:1001A000010001003B001F022102230201000100A7
:1001B0003C002F0226022F00010001003D0030020A
:1001C00027023000010001003E00310235003502F7
:1001D000000001000100010000000100000001001A
:1001E0000100010000000100000001003F0052007A
:1001F00051002402000001004000240021001E00E4
:100200002D0001004100250022001F0037000100E1
:1002100042002600230020002700010043002502A1
:100220002E0231002E000100440045002E00010086
:1002300001000000010001000100010001000000B8
:1002400001000100010001000100010001000100A6
:10025000F2000100010001000100F000F1000100C6
:10026000F400010001000100F3000100F5000100AD
:100270000100010001000100000001000100010077
:100280000000010000000100010001000000010069
:100290000000010001000100010001000000010058
:1002A0000100010001000100A9000100010001009E
:1002B0000100AC00AA00B600010001000100AB0083
:1002C000A80001000100010001000100010001007F
:1002D00001000100AE00010001000000160345000E
:1002E000720067006F0044006F0078002000450036
:1002F0005A00000016034500720067006F004400BA
:100300006F007800200045005A0000000403090433
:1003100009026D00040100A0FA09040000010301B4
:100320000100092111010001223F00070581030896
:10033000000A090401000103010200092111010062
:1003400001224D000705820308000A09040200018A
:100350000300000009211101000122360007058376
:100360000308000A09040300010300000009211129
:100370000100012239000705840310000112011059
:100380000100000008EDFE07130100010200010555
:10039000010906A101050719E029E71500250195C6
:1003A0000875018102050819012905950575019156
:1003B000029501750391010507190029771500259C
:1003C00001957875018102C005010980A1018502AE
:1003D00016010026B7001A01002AB7007510950112
:1003E0008100C0050C0901A1018503160100269CAE
:1003F000021A01002A9C02751095018100C00501B6
:100400000902A1010901A100050919012905150029
:10041000250195057501810295017503810105018D
:10042000093009311581257F950275088106093843
:100430001581257F950175088106050C0A3802157E
:1004400081257F950175088106C0C005010906A1B7
:1004500001050719E029E7150025019508750181B7
:100460000295017508810105081901290595057591
:100470000191029501750391010507190029FF15E6
:100480000025FF950675088100C0000000000000EF
:100490000000000000010204060A0F17202C3A4A4F
:1004A0005D71879DB3C7DAE9F5FCFFFCF5E9DAC7B2
:1004B000B39D87715D4A3A2C20170F0A060402018A
:1004C0000000000000000000000011241FBECFEF5C
:1004D000DAE0DEBFCDBF04B603FE24C08091EE019A
:1004E0009091EF01A091F001B091F1018730904B14
:1004F000A740B04BB9F41092EE011092EF011092A8
:10050000F0011092F10114BE84B7877F84BF88E1A7
:100510000FB6F89480936000109260000FBEE0E088
:10052000FFE3099511E0A0E0B1E0E6EAF7E402C0DC
:1005300005900D92A433B107D9F711E0A4E3B1E01F
:1005400001C01D92AE3EB107E1F70E94B1090C94C3
:10055000D1230C94000061110BC0FC01828188231F
:1005600021F085EE0E94131003C085EE0E94DB107F
:1005700080E090E0089508956091B1017091B2011A
:100580008091B3019091B4010E94DE1A56985E9852
:1005900025982D9826982E9827982F98813019F015
:1005A000823021F00895259A2D9A0895269A2E9A40
:1005B00008950C94BC0256985E9825982D9826981C
:1005C0002E9827982F988FEF90E090938900809332
:1005D000880090938B0080938A0090938D00809385
:1005E0008C00259A2D9A2FEF80E792E021508040D1
:1005F0009040E1F700C00000269A2E9A2FEF80E786
:1006000092E0215080409040E1F700C00000279A1E
:100610002F9A2FEF80E792E0215080409040E1F741
:1006200000C0000025982D982FEF80E792E0215020
:1006300080409040E1F700C0000026982E982FEFF0
:1006400080E792E0215080409040E1F700C0000038
:1006500027982F9856985E9825982D9826982E982A
:1006600027982F98089589EA8093800089E08093E5
:10067000810024982C983F988AB18F748AB96E981B
:10068000479A8BB1806B8BB9769A0E94DB020C94EF
:10069000BB0280E2809300018091340181110EC081
:1006A0000E94980381E0809334012FEF83ED90E363
:1006B000215080409040E1F700C0000080E40E949B
:1006C0009E038093000181112EC00E94C803809375
:1006D0000001811128C00E94C8038093000181118C
:1006E00022C08FE30E94C8038093000181111BC0C8
:1006F0000E94C00380E40E949E0380930001811148
:1007000012C08CE00E94C8038093000181110BC0CD
:100710000E94C80380930001811105C08FE30E94ED
:10072000C803809300010E94C003809100010895D6
:100730001092B9008AE08093B800089594EA9093EB
:10074000BC009091BC0097FFFCCF9091B900987FBE
:10075000983021F0903111F081E008958093BB0032
:1007600084E88093BC008091BC0087FFFCCF80911F
:10077000B900887F883111F0803471F780E00895E6
:1007800084E98093BC008091BC0084FDFCCF089577
:100790008093BB0084E88093BC008091BC0087FFFD
:1007A000FCCF9091B900987F81E0983209F480E005
:1007B000089584E88093BC008091BC0087FFFCCF43
:1007C0008091BB00089580910001811115C080E4E3
:1007D0000E949E038093000181110CC082E10E945F
:1007E000C80380930001811105C08FEF0E94C803E8
:1007F000809300010E94C00384B1807F84B985B1D9
:10080000807F85B98AB1837F8AB98BB1837F8BB9A9
:100810003E98469808950E944903809300010E94E3
:10082000E30380B38C7080BB81B3836F81BBE4E44E
:10083000F1E0A6E3B1E011921D9281E0E235F80704
:10084000D1F70C943303BF92CF92DF92EF92FF92D5
:100850000F931F93CF93DF9380910001882379F04A
:10086000809135018F5F80933501811108C00E940E
:10087000490380930001811102C00E94DB0206E35C
:1008800011E0C0E0D0E0DD24D39482E0C82EEE2455
:10089000E394F12CC73000F580910001811162C012
:1008A00080E40E949E0380930001811112C082E1C6
:1008B0000E94C8038093000181110BC0C7010C2E58
:1008C00001C0880F0A94EAF780950E94C8038093BC
:1008D00000010E94C00346C0CA30A1F028F4C8300D
:1008E00059F0C93061F005C0CC3089F070F0CD30DE
:1008F00089F0209A289810C0219A29980DC0229A30
:100900002A980AC0239A2B9807C0529A01C0539A7A
:100910005B9802C03E9A4698E0EAEA95F1F78FB1FB
:1009200079995AC092E081708D25892B7C9B02C0F9
:1009300090E001C094E0892B7D9B02C090E001C053
:1009400098E0892B7E9B02C090E001C090E1892B4A
:100950009FB19095991F9927991F9295990F907E15
:10096000892B0FC08091000181114BC080E40E944F
:100970009E0380930001882389F1B12C0E94C0035B
:100980008B2DF8019081981719F08083C092010196
:100990000E94E30321960F5F1F4FCE30D10509F06F
:1009A00079CF80910101882371F1815080930101F9
:1009B000882339F08FE99FE00197F1F700C000002C
:1009C00022C0A4E4B1E0E6E3F1E081918D9391E0EF
:1009D000E434F907D1F717C090E0A5CF83E10E9476
:1009E000C803809300018111C8CF81E40E949E0357
:1009F000809300018111C1CF0E94D903B82EB09419
:100A0000BDCF80E0BECF0E94D90281E0DF91CF91BF
:100A10001F910F91FF90EF90DF90CF90BF900895BE
:100A2000E82FF0E0EC5BFE4F808108950895089573
:100A300096E0799FF001112494E5899FE00DF11D66
:100A40001124E60FF11DEE0FFF1FEC51FF4F8591B2
:100A500094910895880F991F805A9040FC018591C8
:100A600094910895880F991F80529F4FFC018591A2
:100A7000949108950F931F93CF93DF93EC01811509
:100A800020E3920730F5811530E2930708F0B1C0FA
:100A90008B3B910588F4883A910508F058C0853A57
:100AA000910508F049C08430910508F043C08130B9
:100AB000910509F4B2C1AEC18F3F910509F0D0F59F
:100AC000803F910508F092C0805E9109089790F1EF
:100AD000A1C1C11581E5D807A8F4C23090E5D907B6
:100AE00008F09FC0C11520E5D20709F486C008F0C0
:100AF00092C0C11580E4D80708F08CC18E0111277F
:100B0000106CCCC1C11590E8D90758F4C11520E785
:100B1000D20708F07BC1C11530E6D30708F423C122
:100B200079C1C11580E9D80708F074C18E011F7022
:100B3000106AB4C18E01B2C1853A910509F470C141
:100B4000863A910509F46FC103E810E4A7C1883A19
:100B5000910509F46BC1893A910509F46AC18A3A91
:100B6000910509F469C18B3A910509F468C18C3A81
:100B7000910509F467C18D3A910509F466C1803B7E
:100B8000910509F465C18E3A910509F464C18F3A63
:100B9000910509F463C1813B910509F462C1823B6F
:100BA000910509F461C1833B910509F460C1843B5F
:100BB000910509F45FC1853B910509F45EC1863B4F
:100BC000910509F45DC1873B910509F45CC1883B3F
:100BD000910509F45BC1893B910509F45AC18A3B2F
:100BE000910509F059C10AE216E458C18C0110655B
:100BF00055C19F700E94320552C10E946D149FEF33
:100C000024E33CE0915020403040E1F700C0000078
:100C10000E94DA1B43C18091CD0181608093CD0198
:100C20003DC10E94821D811102C00E94681D0E9468
:100C30009F1D90E09093EE018093ED01C23080E51E
:100C4000D80721F48091ED01816086C0C43090E521
:100C5000D90721F48091ED0182607EC0C63020E585
:100C6000D20721F48091ED01846076C0C83030E570
:100C7000D30719F48091ED0127C0CA3080E5D80769
:100C800021F48091ED01806167C0CC3090E5D907F7
:100C900021F48091ED0180625FC0CE3020E5D20763
:100CA00021F48091ED01806457C0C03130E5D30755
:100CB00021F48091ED0180684FC0C23180E5D807F2
:100CC00029F48091ED018460886046C0C33090E5CE
:100CD000D90721F48091ED018E7F3EC0C53020E51B
:100CE000D20721F48091ED018D7F36C0C73030E509
:100CF000D30721F48091ED018B7F2EC0C93080E5B0
:100D0000D80719F48091ED0126C0CB3090E5D907C2
:100D100021F48091ED018F7E1FC0CD3020E5D207F8
:100D200021F48091ED018F7D17C0CF3030E5D307DE
:100D300021F48091ED018F7B0FC0C13180E5D80790
:100D400021F48091ED018F7707C0C331D04531F494
:100D50008091ED018B7F877F8093ED018091ED0184
:100D60000E94A31D9BC08D2F99278F7099278130DA
:100D70009105E9F48E01037011279C0102C0220F36
:100D8000331F0A95E2F789011C68CE0164E0880FE1
:100D9000991F6A95E1F788279370082B192B73E048
:100DA000CC0FDD1F7A95E1F7C076DD272CC08230AD
:100DB000910529F41C2F0027016F106A6FC0833042
:100DC000910561F4CE018370992701E010E002C023
:100DD000000F111F8A95E2F71C680EC0049709F0F6
:100DE0005DC0CE018370992701E010E002C0000FC2
:100DF000111F8A95E2F71A6843E0CC0FDD1F4A9570
:100E0000E1F7C07ED7700C2B1D2B48C08E011F70E0
:100E1000106244C000E010E041C001E010E03EC0BC
:100E200001E810E43BC002E810E438C002EE14E42C
:100E300035C009EE14E432C00AEE14E42FC005EB0D
:100E400014E42CC006EB14E429C007EB14E426C01C
:100E50000CEC14E423C00DEC14E420C003E815E40A
:100E60001DC00AE815E41AC002E915E417C004E938
:100E700015E414C001E216E411C003E216E40EC04A
:100E800004E216E40BC005E216E408C006E216E42C
:100E900005C007E216E402C000E014E4C801DF91D7
:100EA000CF911F910F91089596E0799FF001112441
:100EB00094E5899FE00DF11D1124E60FF11DEE0F61
:100EC000FF1FEC51FF4F85919491803E9105E0F416
:100ED000803C910558F58133910509F46FC048F4C1
:100EE0008932910509F463C08A32910509F46DC015
:100EF00072C089339105E9F082389105D1F08533CC
:100F0000910509F44DC067C0833E910581F138F425
:100F1000803E9105B9F0823E9105D9F05CC0863ED5
:100F2000910561F1873E9105A1F155C00E942A0506
:100F300008952091ED0120FD02C021FF4CC080EEFC
:100F400090E049C08091ED0180FFF9CF89E390E006
:100F500042C08091ED0182FF0EC08091ED0184FFBF
:100F600003C080E090E037C083EE90E034C0809111
:100F7000ED0182FFF2CF82EE90E02DC08091ED0175
:100F800083FF0BC08091ED0184FDEBCF87EE90E0F5
:100F900022C08091ED0183FFF5CF86EE90E01BC06B
:100FA0008091ED0185FF07C089E290E014C0809137
:100FB000ED0185FFF9CF85E390E00DC08091ED0153
:100FC00086FF07C08AE290E006C08091ED0186FFAF
:100FD000F9CF81E390E00E943A05089508950C94BA
:100FE000EE07809162010895CF93DF9300D01F92A6
:100FF000CDB7DEB72091E401243019F523E0298331
:101000009B838A832093E9008FEF9091E8008150C1
:1010100095FD06C095ED9A95F1F700008111F5CF89
:101020008091E80085FF0DC040E050E063E070E093
:10103000CE0101960E945E0A8091E8008E7780932F
:10104000E8000F900F900F90DF91CF910895CF930C
:10105000DF9300D01F92CDB7DEB72091E40124309A
:1010600021F522E029839B838A8383E08093E90032
:101070008FEF9091E800815095FD06C095ED9A950F
:10108000F1F700008111F5CF8091E80085FF0DC0D8
:1010900040E050E063E070E0CE0101960E945E0AFD
:1010A0008091E8008E778093E8000F900F900F906A
:1010B000DF91CF9108952091E4012430F1F422E0F2
:1010C0002093E9002FEF3091E800215035FD06C054
:1010D00035ED3A95F1F700002111F5CF2091E800A8
:1010E00025FF0BC040E050E065E070E00E945E0A22
:1010F0008091E8008E778093E8000895CF93DF9386
:10110000EC018091E401843009F046C090910C011B
:101110009923D9F090910D019923B9F08093E900BA
:101120008FEF9091E800815095FD06C095E19A956A
:10113000F1F700008111F5CF8091E80085FF2CC008
:1011400040E050E060E170E017C081E08093E9008A
:101150008FEF9091E800815095FD06C095ED9A952E
:10116000F1F700008111F5CF8091E80085FF14C0F0
:1011700040E050E068E070E0CE010E945E0A80919D
:10118000E8008E778093E80080E1FE01A2E5B1E0FF
:1011900001900D928A95E1F7DF91CF9108958091AA
:1011A000E301811109C00E94F00B0E944D0C809157
:1011B000E20084608093E20008951092E3010895B4
:1011C00008950C94FE210E94711B0E9404220E942B
:1011D000EA0E0C94EF0742E061EC81E00E946A0B9A
:1011E00042E061EC82E00E946A0B42E061EC83E045
:1011F0000E946A0B42E161EC84E00C946A0B8091DE
:10120000E601833009F455C030F4813071F082304A
:1012100009F48EC008958A3009F47AC08B3009F43D
:1012200060C0893009F09CC020C08091E501813AFE
:1012300009F096C08091E800877F8093E800809154
:10124000E9019091EA01892B21F060E080E090E0D3
:1012500003C060E182E591E070E00E94A70A8091FE
:10126000E8008B778093E80008958091E501813252
:1012700009F076C08091E9019091EA01009719F098
:10128000039709F06DC08091E800877F8093E800A4
:101290008091E80082FD05C08091E4018111F8CFC2
:1012A0005FC08091F100809362018091E8008B77AC
:1012B00053C08091E501813A09F052C08091E90163
:1012C0009091EA01892B09F04BC08091E800877F5B
:1012D0008093E8008091E80080FFFCCF80910C01B2
:1012E00036C08091E5018132D9F58091E901909174
:1012F000EA01892BA9F58091E800877F8093E800B7
:101300000E949F0B8091E70180930C010C946D1457
:101310008091E501813221F58091E800877F8093FB
:10132000E8000E949F0B8091E8018093630108957B
:101330008091E501813AA1F48091E800877F809354
:10134000E8008091E80080FFFCCF809163018093EA
:10135000F1008091E8008E778093E8000C949F0B59
:10136000089584B7877F84BF88E10FB6F89480938F
:101370006000109260000FBE90E080E80FB6F89415
:1013800080936100909361000FBE0E94390F0E940C
:10139000F00B0E944D0C8091E20084608093E2008B
:1013A00078940E94C80E0E943B0F82E091E00E9458
:1013B000E50E0E94EC218091E401853069F40E94E1
:1013C000311B8091E2018823B1F30E945C1B8823CA
:1013D00091F30E94480AEFCF0E94410FECCF292FD2
:1013E000332723303105A9F06CF42130310509F49D
:1013F00042C02230310509F043C08DE690E020E183
:1014000033E042C021323105C9F02232310519F1F1
:1014100037C099278130910541F08230910541F024
:10142000892B71F5ECE0F3E005C0E4EFF2E002C0D7
:10143000ECEDF2E0849190E09F0126C0643000F56D
:10144000E62FF0E0EE0FFF1FEE5DFE4F20813181B1
:1014500089E090E019C0643098F4E62FF0E0DF01F5
:10146000AA0FBB1FA65EBE4F2D913C91EA5EFE4FB8
:10147000808190E009C082E190E02DE733E004C074
:1014800080E090E020E030E0FA013183208308958D
:1014900080E189BD82E189BD09B400FEFDCF809164
:1014A000D8008F7D8093D8008091E0008260809387
:1014B000E0008091E00081FDFCCF0895CF92DF92A3
:1014C000EF92FF920F931F93CF93DF937C018B01D9
:1014D000EA010E94C00B811131C0209731F0888150
:1014E0009981081B190BE80EF91EC12CD12C01158E
:1014F000110519F18091E80085FD14C08091E80084
:101500008E778093E800209741F0888199818C0D37
:101510009D1D9983888385E011C00E94C00B88239C
:1015200031F30CC0F70181917F018093F1000150EC
:101530001109FFEFCF1ADF0ADACF80E0DF91CF91F8
:101540001F910F91FF90EF90DF90CF900895209121
:10155000EB013091EC012617370748F06115710552
:1015600039F42091E8002E772093E80001C0B901FA
:10157000FC0120E061157105B9F18091E401882337
:1015800009F440C0853009F43FC08091E80083FD34
:101590003DC08091E80082FF06C08091E80082FF94
:1015A00026C080E008958091E80080FFE3CF20917D
:1015B000F3008091F20090E0922B6115710551F0DB
:1015C0008830910538F421912093F1006150710920
:1015D0000196F3CF21E0089709F020E08091E80020
:1015E0008E778093E800C6CF2111C7CFD6CF8091E8
:1015F000E401882339F0853039F08091E80083FFD9
:10160000CCCF04C082E0089583E0089581E008957E
:101610002091EB013091EC012617370748F0611556
:10162000710539F42091E8002E772093E80001C07D
:10163000B901FC0120E061157105C1F18091E4015F
:10164000882309F441C0853009F440C08091E80046
:1016500083FD3EC08091E80082FF06C08091E800D3
:1016600082FF27C080E008958091E80080FFE3CFEB
:101670002091F3008091F20090E0922B61157105AA
:1016800059F08830910540F424912093F10031966F
:10169000615071090196F2CF21E0089709F020E02E
:1016A0008091E8008E778093E800C5CF2111C6CFE6
:1016B000D5CF8091E401882339F0853039F08091CD
:1016C000E80083FFCBCF04C082E0089583E0089553
:1016D00081E00895982F973058F59093E900981776
:1016E00039F07091EC002091ED005091F00003C0B2
:1016F000242F762F50E021FF19C03091EB003E7F60
:101700003093EB003091ED003D7F3093ED00309150
:10171000EB0031603093EB007093EC002093ED0010
:101720005093F0002091EE0027FF07C09F5FD3CFBA
:101730008F708093E90081E0089580E008958091A2
:10174000E50187FD05C08091E80080FF0EC012C052
:101750008091E80082FD05C08091E4018111F8CFFD
:1017600008958091E8008B7708C08091E401811191
:10177000EACF08958091E8008E778093E80008957D
:101780008091E4009091E50045E62091EC0020FF77
:1017900021C02091E80020FD21C02091E4012223F6
:1017A00089F0253089F02091EB0025FD0FC02091B4
:1017B000E4003091E5002817390739F3415041F032
:1017C000C901E3CF82E0089583E0089581E00895A0
:1017D00084E008952091E80022FFDFCF80E00895A3
:1017E0000E945E0C0E94660CE0EEF0E08081816059
:1017F0008083E8EDF0E080818F77808319BCA7EDCE
:10180000B0E08C918E7F8C9380818F7E808310924C
:10181000E30108950F931F93CF93DF930E945E0C13
:101820000E94660CC8EDD0E088818F77888388811C
:101830008068888388818F7D888319BC1092E40139
:101840001092E0011092E2011092E10100EE10E02E
:10185000F80180818B7F808388818160888342E06A
:1018600060E080E00E946A0BE1EEF0E080818E7F14
:101870008083E2EEF0E080818160808380818860F7
:101880008083F80180818E7F808388818061888356
:10189000DF91CF911F910F910895E8EDF0E08081E5
:1018A0008F7E8083E7EDF0E080818160808384E03B
:1018B00082BF81E08093E3010C940A0CE8EDF0E034
:1018C00080818E7F80831092E20008951092DA006A
:1018D0001092E10008951F920F920FB60F921124FB
:1018E0002F933F934F935F936F937F938F939F9328
:1018F000AF93BF93EF93FF938091E10082FF0BC002
:101900008091E20082FF07C08091E1008B7F80938D
:10191000E1000E94C70E8091DA0080FF1FC0809115
:10192000D80080FF1BC08091DA008E7F8093DA00A0
:101930008091D90080FF0DC080E189BD82E189BD21
:1019400009B400FEFDCF81E08093E4010E94CF083E
:1019500005C019BC1092E4010E94DD088091E100ED
:1019600080FF19C08091E20080FF15C08091E200E5
:101970008E7F8093E2008091E20080618093E2009C
:101980008091D80080628093D80019BC85E0809354
:10199000E4010E94E1088091E10084FF30C0809161
:1019A000E20084FF2CC080E189BD82E189BD09B4D9
:1019B00000FEFDCF8091D8008F7D8093D80080916C
:1019C000E1008F7E8093E1008091E2008F7E809322
:1019D000E2008091E20081608093E2008091E0016A
:1019E000882311F084E007C08091E30087FF02C0E4
:1019F00083E001C081E08093E4010E94E3088091CC
:101A0000E10083FF29C08091E20083FF25C080911F
:101A1000E100877F8093E10082E08093E4011092EF
:101A2000E0018091E1008E7F8093E1008091E200EF
:101A30008E7F8093E2008091E20080618093E200DB
:101A400042E060E080E00E946A0B8091F0008860D4
:101A50008093F0000E94E008FF91EF91BF91AF9159
:101A60009F918F917F916F915F914F913F912F91B6
:101A70000F900FBE0F901F9018951F920F920FB6E8
:101A80000F9211242F933F934F935F936F937F9304
:101A90008F939F93AF93BF93CF93EF93FF93C09197
:101AA000E900CF708091EC001092E9008091F00085
:101AB000877F8093F00078940E94790D1092E9005E
:101AC0008091F00088608093F000C093E900FF915E
:101AD000EF91CF91BF91AF919F918F917F916F9136
:101AE0005F914F913F912F910F900FBE0F901F90DC
:101AF00018951F93CF93DF93CDB7DEB7AA970FB694
:101B0000F894DEBF0FBECDBFE5EEF1E08091F100AD
:101B1000819321E0ED3EF207C9F70E94FF08809112
:101B2000E80083FF1CC12091E5013091E601832F7D
:101B300090E08A30910508F012C1FC01EA5AFF4F8B
:101B40000C948623203881F0223809F008C1809156
:101B5000E9018F708093E9008091EB0085FB882775
:101B600080F91092E90006C08091E1019091E201B4
:101B7000911182609091E800977F9093E8008093A4
:101B8000F1001092F100C5C0822F8D7F09F0E7C0EF
:101B9000222319F0223061F0E2C08091E701813008
:101BA00009F0DDC0333009F080E08093E20128C005
:101BB0008091E701811124C02091E9012F7009F47F
:101BC000CEC02093E9008091EB0080FF19C0809186
:101BD000EB00333011F4806211C080618093EB0020
:101BE00081E090E0022E01C0880F0A94EAF780930A
:101BF000EA001092EA008091EB0088608093EB008D
:101C00001092E9008091E800877F86C02111A7C06B
:101C10001091E7011F778091E3008078812B8093FA
:101C2000E3008091E800877F8093E8000E949F0B8B
:101C30008091E80080FFFCCF8091E3008068809372
:101C4000E300112311F083E001C082E08093E401FE
:101C500086C02058223008F082C08091E701909120
:101C6000E8018C3D23E0920779F583E08A838AE2DC
:101C700089834FB7F894DE01139620E03EE051E2ED
:101C8000E32FF0E050935700E49120FF03C0E2956A
:101C9000EF703F5FEF708E2F90E0EA3010F0C79644
:101CA00001C0C0968D939D932F5F243149F74FBF9C
:101CB0008091E800877F8093E8006AE270E0CE01BF
:101CC00001960E94A70A14C0AE014F5F5F4F60915A
:101CD000E9010E94EF09009709F441C02091E80052
:101CE000277F2093E800BC0189819A810E94080B1C
:101CF0008091E8008B778093E80031C0203879F537
:101D00008091E800877F8093E8008091E0018093D4
:101D1000F1008091E8008E778093E8000E949F0B8D
:101D20001EC021111CC09091E7019230C0F4809137
:101D3000E800877F8093E8009093E0010E949F0B6A
:101D40008091E001811104C08091E30087FF02C00F
:101D500084E001C081E08093E4010E94EB0880915F
:101D6000E80083FF0AC08091E800877F8093E80045
:101D70008091EB0080628093EB00AA960FB6F894F6
:101D8000DEBF0FBECDBFDF91CF911F9108950895A3
:101D9000CF938091E4018823B1F08091E9008F70A6
:101DA0009091EC0090FF02C090E801C090E0C92F34
:101DB000C82B1092E9008091E80083FD0E94790D04
:101DC000CF70C093E900CF910895909369018093FB
:101DD00068010895E0916801F0916901309721F060
:101DE0000190F081E02D099480E00895E091680170
:101DF000F0916901309721F00280F381E02D099480
:101E00000895E0916801F0916901309721F0048014
:101E1000F581E02D099408952091660130916701C4
:101E20008217930771F09093670180936601E091A8
:101E30006801F0916901309721F00680F781E02D6B
:101E400009940895209164013091650182179307E8
:101E500071F09093650180936401E0916801F091C5
:101E60006901309721F00084F185E02D09940895EF
:101E700008950C94380F0E94771B0E940B040C9459
:101E80003D1CCF92DF92EF92FF920F931F93CF935F
:101E9000DF93CDB7DEB72B970FB6F894DEBF0FBE3A
:101EA000CDBF0E9423043BE6E32E31E0F32E00E099
:101EB00010E0C02E802F0E941005F701D1907F0105
:101EC000D826B1F40F5F1F4F0E30110591F78FEF39
:101ED00089838A831B820E94801B8160782F9D8367
:101EE0008C8349815A816B818D810E94E40F41C0AE
:101EF0009091CD0191FF04C08B870E9416058B85C0
:101F000020E030E04D2D50E0922FBA01022E02C0A9
:101F1000759567950A94E2F760FF25C02E83CF82FE
:101F2000EE24E394F12C02C0EE0CFF1C9A95E2F72C
:101F300090E08E219F2121E0892B09F420E0288761
:101F40000E94801B8160782F9A8789874E815F81EC
:101F500068858A850E94E40FF801E559FE4F80816B
:101F60008E25808306C02F5F3F4F2630310561F6F6
:101F7000A9CF0E94211F10916A010E94EA0E181732
:101F8000A1F00E94EA0E80936A012B960FB6F89496
:101F9000DEBF0FBECDBFDF91CF911F910F91FF909C
:101FA000EF90DF90CF900C94EF072B960FB6F8943C
:101FB000DEBF0FBECDBFDF91CF911F910F91FF907C
:101FC000EF90DF90CF900895CF93DF93CDB7DEB73A
:101FD0002B970FB6F894DEBF0FBECDBF4F83588747
:101FE00069877A878B87DE01119686E0FD01119261
:101FF0008A95E9F785E0FE01379601900D928A9562
:10200000E1F749815A816B817C818D819E810E949B
:1020100039172B960FB6F894DEBF0FBECDBFDF91F8
:10202000CF9108950895CF93C82F882309F4C1C094
:10203000823859F40E94EA0E81FDBBC089E30E94F8
:10204000E5190E94AF1A89E30CC0833879F40E9425
:10205000EA0E80FDAEC083E50E94E5190E94AF1A2A
:1020600083E50E94251ACF910C94AF1A843859F455
:102070000E94EA0E82FD9DC087E40E94E5190E943D
:10208000AF1A87E4EECF8CEF8C0F813A48F48C2F97
:102090000E94542181118DC08C2F0E94E519E3CF3D
:1020A00080E28C0F883048F4C77081E001C0880F4F
:1020B000CA95EAF70E94661AD6CF8BE58C0F83305B
:1020C00078F4C53A29F0C63A31F482E890E005C0C8
:1020D00081E890E002C083E890E0CF910C940C0F6F
:1020E00088E58C0F833108F064C0C83A39F1C93AE9
:1020F00041F1CA3A49F1CB3A51F1CC3A59F1CD3AD2
:1021000061F1C03B69F1CE3A71F1CF3A79F1C13B4F
:1021100081F1C23B89F1C33B91F1C43B99F1C53BCD
:10212000A1F1C63BA9F1C73BB1F1C83BB9F1C93B2D
:10213000C1F1CA3BC9F58AE292E038C082EE90E074
:1021400035C089EE90E032C08AEE90E02FC085EB7A
:1021500090E02CC086EB90E029C087EB90E026C091
:102160008CEC90E023C08DEC90E020C083E891E0FF
:102170001DC08AE891E01AC082E991E017C084E9A5
:1021800091E014C081E292E011C083E292E00EC0BF
:1021900084E292E00BC085E292E008C086E292E021
:1021A00005C087E292E002C080E090E0CF910C94FD
:1021B000220FCF910895882309F44BC0823859F437
:1021C0000E94EA0E81FF45C089E30E94E5190E9442
:1021D000AF1A89E30CC0833871F40E94EA0E80FFC5
:1021E00038C083E50E94E5190E94AF1A83E50E947A
:1021F000251A0C94AF1A843859F40E94EA0E82FF13
:1022000028C087E40E94E5190E94AF1A87E4EFCF47
:102210009CEF980F913A58F390E2980F983050F451
:10222000877091E001C0990F8A95EAF7892F0E9483
:102230006C1ADFCF9BE5980F933020F480E090E09C
:102240000C940C0F885A833120F480E090E00C94B9
:10225000220F0895882321F00E94661A0C94AF1A69
:102260000895882321F00E946C1A0C94AF1A0895E7
:10227000CF92DF92EF92FF920F931F93CF93DF9352
:10228000CDB7DEB728970FB6F894DEBF0FBECDBF2F
:102290008C0185E0F801DE01119601900D928A957E
:1022A000E1F7F801D080E180F280558152955F70AE
:1022B00023813481232B39F0FFEFEF1206C081E038
:1022C000DF1203C003C081E001C080E080FDE2C2F4
:1022D000C8015F830E941210D982EA8269817A81E3
:1022E0008F2D0E94E1199E8388870E9495190E9474
:1022F00068184E815F816885FF2029F00E94831A4B
:1023000068855F814E81E42FE295EF70F0E0E05A3E
:10231000FF4F0C948623842F807F142F1F708823F7
:1023200011F01295107FFF20B1F0112309F467C25C
:1023300080E2860F883028F4812F68870E94661A11
:1023400004C0812F68870E94761A688568870E947A
:10235000AF1A688554C2862F68870E94DB10688593
:10236000112309F497C2605E812F683018F40E942F
:102370006C1A02C00E947C1A28960FB6F894DEBF31
:102380000FBECDBFDF91CF911F910F91FF90EF90C6
:10239000DF90CF900C94AF1A242F207F842F8F7062
:1023A000203211F08295807F662319F0613019F197
:1023B0002BC0FF20B1F0552309F493C1513009F02F
:1023C00090C128960FB6F894DEBF0FBECDBFDF9147
:1023D000CF911F910F91FF90EF90DF90CF900C94D1
:1023E000961A552319F0513009F454C28E830E9475
:1023F000991A8E8189C1FF2021F0523008F04AC21B
:1024000070C1511147C280C1FF2021F0552309F44A
:1024100068C1F5C1552309F477C105C2242F26955B
:102420002695237030E02115310521F0213031054A
:10243000C9F030C2FF2021F0862F942F937002C084
:1024400080E090E028960FB6F894DEBF0FBECDBFB7
:10245000DF91CF911F910F91FF90EF90DF90CF9080
:102460000C940C0FFF2021F0862F942F937002C044
:1024700080E090E028960FB6F894DEBF0FBECDBF87
:10248000DF91CF911F910F91FF90EF90DF90CF9050
:102490000C94220F862FFF2019F00E94291E02C0E3
:1024A0000E94911E28960FB6F894DEBF0FBECDBFD6
:1024B000DF91CF911F910F91FF90EF90DF90CF9020
:1024C0000C94161F842F837009F076C0F110E2C1BE
:1024D000262F229526952770220F220F862F8F7088
:1024E000C82ED12CE12CF12C022E04C0CC0CDD1C0A
:1024F000EE1CFF1C0A94D2F764FF10C06FE070E07E
:1025000080E090E004C0660F771F881F991F2A950E
:10251000D2F7609570958095909503C060E070E06B
:10252000CB01242F269526952370422F50E0423070
:102530005105D1F04330510559F16C297D298E297F
:102540009F294130510541F128960FB6F894DEBF1E
:102550000FBECDBFDF91CF911F910F91FF90EF90F4
:10256000DF90CF900C948D186C297D298E299F299E
:1025700028960FB6F894DEBF0FBECDBFDF91CF9186
:102580001F910F91FF90EF90DF90CF900C94A718C0
:102590000E948D18C701B60128960FB6F894DEBFC9
:1025A0000FBECDBFDF91CF911F910F91FF90EF90A4
:1025B000DF90CF900C947318FF2019F0842F817056
:1025C00001C08695882309F465C1262F229526959A
:1025D0002770220F220F862F8F70C82ED12CE12C4E
:1025E000F12C022E04C0CC0CDD1CEE1CFF1C0A9446
:1025F000D2F764FF10C06FE070E080E090E004C0AC
:10260000660F771F881F991F2A95D2F760957095DE
:102610008095909503C060E070E0CB01242F269553
:1026200026952370422F50E042305105D1F04330BF
:10263000510559F16C297D298E299F294130510579
:1026400041F128960FB6F894DEBF0FBECDBFDF91E3
:10265000CF911F910F91FF90EF90DF90CF900C944E
:1026600061196C297D298E299F2928960FB6F89427
:10267000DEBF0FBECDBFDF91CF911F910F91FF90B5
:10268000EF90DF90CF900C947B190E946119C701E5
:10269000B60128960FB6F894DEBF0FBECDBFDF910E
:1026A000CF911F910F91FF90EF90DF90CF900C94FE
:1026B0004719603FC9F118F4603E50F49BC0623F77
:1026C00009F460C008F44AC0633F09F46FC092C0C7
:1026D000162F1F70842F8F71FF2099F00E94E01831
:1026E000812F28960FB6F894DEBF0FBECDBFDF91C5
:1026F000CF911F910F91FF90EF90DF90CF900C94AE
:102700002A110E940119812F28960FB6F894DEBF76
:102710000FBECDBFDF91CF911F910F91FF90EF9032
:10272000DF90CF900C943111FF20A1F05111B2C075
:10273000842F8F7128960FB6F894DEBF0FBECDBFE1
:10274000DF91CF911F910F91FF90EF90DF90CF908D
:102750000C942619523008F09DC0EACFFF20A1F05A
:10276000842F8F7128960FB6F894DEBF0FBECDBFB1
:10277000DF91CF911F910F91FF90EF90DF90CF905D
:102780000C94E018FF2061F3842F8F7128960FB608
:10279000F894DEBF0FBECDBFDF91CF911F910F9197
:1027A000FF90EF90DF90CF900C940119FF2091F0F3
:1027B000842F8F7128960FB6F894DEBF0FBECDBF61
:1027C000DF91CF911F910F91FF90EF90DF90CF900D
:1027D0000C94CB1828960FB6F894DEBF0FBECDBF71
:1027E000DF91CF911F910F91FF90EF90DF90CF90ED
:1027F0000C94C118FF20A1F0552309F4B1CF862F06
:1028000028960FB6F894DEBF0FBECDBFDF91CF91F3
:102810001F910F91FF90EF90DF90CF900C941310C9
:10282000552309F4B1CF862F28960FB6F894DEBF52
:102830000FBECDBFDF91CF911F910F91FF90EF9011
:10284000DF90CF900C94DB104F70C8010E94AB0258
:1028500028960FB6F894DEBF0FBECDBFDF91CF91A3
:102860001F910F91FF90EF90DF90CF900C94E6179F
:102870004F70C80128960FB6F894DEBF0FBECDBFCB
:10288000DF91CF911F910F91FF90EF90DF90CF904C
:102890000C94170528960FB6F894DEBF0FBECDBF77
:1028A000DF91CF911F910F91FF90EF90DF90CF902C
:1028B00008950E94831A0E94931A0E94581A0E9437
:1028C000AF1A0E94C21F0E94161F80E090E00E9473
:1028D0000C0F80E090E00C94220F0E94731A0C946D
:1028E00059140E94D619292F22952F7030E02C30D0
:1028F00031054CF42A3031056CF422503109223074
:10290000310590F407C02C30310551F02F303105DE
:1029100039F00AC0803E10F0803F31F481E0089524
:1029200093FB882780F9089580E00895CF93DF9383
:1029300000D000D01F92CDB7DEB70F900F900F9050
:102940000F900F90DF91CF910895CF93DF9300D038
:1029500000D000D0CDB7DEB726960FB6F894DEBF14
:102960000FBECDBFDF91CF9108951F93CF93DF931B
:10297000C091790116E080917A01C81799F0D0E0F2
:102980001C9FF0011D9FF00D1124E558FE4F408162
:10299000518162817381848195810E94A514219661
:1029A000C770E9CFDF91CF911F9108954091AB019E
:1029B0005091AC016091AD017091AE018091AF0179
:1029C0009091B0010C94A514CF938091B0018295A1
:1029D0008F7009F05FC08091AD01882309F45AC05F
:1029E00020917901A0917A016091AB017091AC01C5
:1029F0008091AE019091AF0131E06F3F09F030E07E
:102A0000B32FC6E02A1709F445C0009721F07F3F95
:102A100021F44B2F03C041E001C040E030E040FD15
:102A200035C0C29FF001C39FF00D1124E558FE4F41
:102A3000418174132BC04081641328C0428141112D
:102A400025C0438154814817590710F4415051095A
:102A5000481B590B483C5105C8F48091B0018F7058
:102A600080618093B00186E0829FF001839FF00D2A
:102A70001124E058FE4F80818F70806180838BEA43
:102A800091E00E943811CF910C94B5142F5F3F4F05
:102A90002770B8CFCF910895CF92DF92EF92FF9237
:102AA0000F931F93CF93DF93CDB7DEB762970FB627
:102AB000F894DEBF0FBECDBF8C0185E0F801DE01CA
:102AC0001D9601900D928A95E1F7D8014C911196CF
:102AD0005C91119712966C9112971396ED90FC9061
:102AE00014977091AB01E091AC012091AE0130914F
:102AF000AF012115310531F0EF3F31F481E07F3F27
:102B000019F403C081E001C080E0B82FB170CB2E72
:102B100080FD6CC1D090AD01DD2009F4F5C0F091CD
:102B2000B001E216F30638F0C701821B930B883C14
:102B3000910548F09BC0209530952E0D3F1D283CF7
:102B4000310508F093C08F2F807F09F052C0E51344
:102B500014C0741312C0D62E61110FC0FF70F06143
:102B6000F093B0010E94D6148BEA91E00E943811D4
:102B70008091B001F80185836CC1EF2831F05F3F8F
:102B800031F481E04F3F19F403C081E001C080E0DF
:102B900080FD03C081E0862701C080E0F82FF1703E
:102BA000FF2E80FF1CC08091790120917A0136E0D0
:102BB000821709F428C190E0389FF001399FF00D89
:102BC0001124E558FE4F7181571306C070814713D9
:102BD00003C07281671303C001968770E9CFD62EB8
:102BE000662309F436C18091B00181608093B00101
:102BF00053C0E51308C0741306C0611104C0D801A6
:102C00001596FC93AEC04D875E878D859E856A8B39
:102C10000E9471146A89882329F1D62E662311F146
:102C20002091B001822F82958F7090E002970CF472
:102C300060C08091AB019091AC0198878F83198619
:102C4000FB86EA862C87CE01079651C0E51731F145
:102C50004D875E878D859E856A8B0E9471146A8977
:102C600081112EC0C8010E943811A4C08F2F807F0F
:102C700069F77E2DF98AE88A89890E9496148BEA81
:102C800091E00E943811EBEAF1E086E0DF011D924D
:102C90008A95E9F70E94D614D12CDBC07413D8CFE3
:102CA0006111D6CFD8011596FC93C8010E94381146
:102CB000EBEAF1E086E0DF011D928A95E9F7C9C0F1
:102CC000D62E662379F22091B001822F82958F70E3
:102CD00090E0029774F08091AB019091AC019A83DF
:102CE00089831B82FD82EC822E83CE0101960E9495
:102CF000381186E0F801ABEAB1E001900D928A95B7
:102D0000E1F70E94E4146FC0E216F30628F0C70151
:102D1000821B930B9C0104C0209530952E0D3F1D06
:102D2000283C310508F052C0D62E662309F49ACF0C
:102D3000E5132CC074132AC08091B00180FD1DC022
:102D4000982F92959F70C9F0D80115968C9315977E
:102D50009F3039F09F5F9295907F8F70892B1596E9
:102D60008C93C8010E94381186E0F801ABEAB1E00B
:102D700001900D928A95E1F736C086E0F801ABEA42
:102D8000B1E001900D928A95E1F763C04D875E87AF
:102D90008D859E850E947114882379F086E0F80164
:102DA000ABEAB1E001900D928A95E1F70E94E4143C
:102DB0000E94D614DD24D3944CC08091B001816070
:102DC0008093B001C8010E94381143C07E2DF98A5A
:102DD000E88A89890E949614EBEAF1E086E0DF0137
:102DE0001D928A95E9F70E94D61433C0662309F430
:102DF00039CF4D875E878D859E850E94711488230B
:102E000009F430CFCBCF4D875E878D859E850E949C
:102E1000D619292F22952F7030E0223031052CF45D
:102E20009F7041F0811106C00CC0243031052CF494
:102E30009F7049F4805E883020F0C8010E943811EC
:102E4000CF2CDC2C06C0D80115969C91907F91F771
:102E5000F8CF8D2D62960FB6F894DEBF0FBECDBFB2
:102E6000DF91CF911F910F91FF90EF90DF90CF9066
:102E700008951F93CF93DF93CDB7DEB72C970FB68E
:102E8000F894DEBF0FBECDBF4F83588769877A871E
:102E90008B879C87CE0107960E944C158823C1F032
:102EA0002F8138858A859B85892B31F03F3F11F032
:102EB00080E003C02F3FE1F781E0811147C04F81DF
:102EC000588569857A858B859C850E94A5143EC0AE
:102ED00086E0FE013796DE01119601900D928A95EB
:102EE000E1F7FF81E8854A855B854115510531F0A1
:102EF000EF3F31F481E0FF3F19F403C081E001C0EE
:102F000080E080FD23C020917A0130E0C901019664
:102F1000877099276091790170E086179707F1F122
:102F2000F983EA835D834C8396E0929FD001939F5F
:102F3000B00D1124A558BE4FFE01319601900D929F
:102F40009A95E1F780937A010E94B51416E080917A
:102F5000790190917A01891779F1189FC0011124A4
:102F600085589E4F0E944C15882331F1E0917901DC
:102F70001E9FF0011124E558FE4F4081518162816E
:102F80007381848195810E94A5148091790190E0DC
:102F900001968770992780937901D9CF0E946D148B
:102FA00010927A0110927901EBEAF1E086E0DF01FC
:102FB0001D928A95E9F7CACF2C960FB6F894DEBF1A
:102FC0000FBECDBFDF91CF911F910895EF92FF9279
:102FD0000F931F93CF93DF939C01009709F471C067
:102FE000F12CEE24E394E9012196F90184918437D0
:102FF00040F4843008F056C0813081F0823021F1F5
:1030000060C0853709F449C0C0F19CE7980F90373C
:1030100008F057C08F770E94DB1046C089010E5F11
:103020001F4FFE01849190E2980F983050F4877002
:10303000FE2D01C0FF0F8A95EAF78F2F0E94861A96
:1030400015C00E94131014C089010E5F1F4FFE01AE
:10305000849190E2980F983068F48770FE2D01C03B
:10306000FF0F8A95EAF78F2F0E948C1A0E94AF1AE1
:10307000E8011AC00E94DB10FBCF2E5F3F4FFE011C
:10308000C491CC2341F08FE99FE00197F1F700C094
:103090000000C150F6CFE90107C0FE01F490E9013C
:1030A000229602C00E9413108F2D882341F0EFE971
:1030B000FFE03197F1F700C000008150F6CF9E018C
:1030C00092CFDF91CF911F910F91FF90EF900895D4
:1030D00008956093B5017093B6018093B701909302
:1030E000B8010C9459140F931F930091B5011091DE
:1030F000B6012091B7013091B801062B172B282B70
:10310000392B0093B5011093B6012093B70130938A
:10311000B8011F910F910C9459140F931F930091B4
:10312000B5011091B6012091B7013091B801062385
:103130001723282339230093B5011093B601209358
:10314000B7013093B8011F910F910C9459140F934C
:103150001F930091B5011091B6012091B7013091F4
:10316000B80106271727282739270093B5011093A0
:10317000B6012093B7013093B8011F910F910C94C1
:1031800059141092B1011092B2011092B301109231
:10319000B4010C94591441E050E060E070E004C0C8
:1031A000440F551F661F771F8A95D2F74093B101D0
:1031B0005093B2016093B3017093B4010C9459140D
:1031C00041E050E060E070E004C0440F551F661F0E
:1031D000771F8A95D2F78091B1019091B201A091A9
:1031E000B301B091B401842B952BA62BB72B809300
:1031F000B1019093B201A093B301B093B4010C94C8
:10320000591441E050E060E070E004C0440F551FE5
:10321000661F771F8A95D2F74095509560957095F7
:103220008091B1019091B201A091B301B091B4012C
:1032300084239523A623B7238093B1019093B201F1
:10324000A093B301B093B4010C94591441E050E041
:1032500060E070E004C0440F551F661F771F8A9519
:10326000D2F78091B1019091B201A091B301B091D8
:10327000B40184279527A627B7278093B10190939F
:10328000B201A093B301B093B4010C9459140F93FD
:103290001F930091B1011091B2012091B3013091BF
:1032A000B401062B172B282B392B0093B101109357
:1032B000B2012093B3013093B4011F910F910C948C
:1032C00059140F931F930091B1011091B2012091F5
:1032D000B3013091B4010623172328233923009327
:1032E000B1011093B2012093B3013093B4011F9147
:1032F0000F910C9459140F931F930091B1011091E9
:10330000B2012091B3013091B40106271727282775
:1033100039270093B1011093B2012093B301309388
:10332000B4011F910F910C9459140895CF92DF921C
:10333000EF92FF920F931F93CF93DF93EC01C09016
:10334000B501D090B601E090B701F090B80180913E
:10335000B1019091B201A091B301B091B401C82A1A
:10336000D92AEA2AFB2A0FE110E0B701A601002EB4
:1033700004C076956795579547950A94D2F740FD16
:1033800005C00150110988F780E007C0BE01802FF9
:103390000E9454070197A9F3802FDF91CF911F91CD
:1033A0000F91FF90EF90DF90CF900895CF93DF9330
:1033B000EC010E949619BE010E945407DF91CF9143
:1033C0000895CB010E94D619089590910C0199237C
:1033D000D9F090910D019923B9F0982F9695969573
:1033E00096959F3088F5E0910E01F0910F01E90F5D
:1033F000F11D877021E030E001C0220F8A95EAF7C5
:103400008181822B8183089540910E0150910F019B
:1034100020E030E09FEFFA01E20FF31F62816817AE
:1034200099F09F3F19F4611101C0922F2F5F3F4F18
:103430002E30310581F79F3F39F0FA01E90FF11D78
:1034400097FDFA9582830895089590910C01992330
:10345000E1F090910D019923C1F0982F96959695E2
:1034600096959F3020F5E0910E01F0910F01E90F44
:10347000F11D877021E030E001C0220F8A95EAF744
:103480002095818128232183089540910E01509138
:103490000F0120E030E0FA01E20FF31F9281981350
:1034A00001C012822F5F3F4F2E303105A1F70895E2
:1034B00081E090E0E0910E01F0910F01E80FF91F1B
:1034C0001082019680319105A9F708959091CC0161
:1034D000982B9093CC01089580959091CC019823DE
:1034E0009093CC0108951092CC0108959091CB0156
:1034F000982B9093CB01089580959091CB019823C0
:103500009093CB0108951092CB0108959091CA0138
:10351000982B9093CA01089580959091CA019823A1
:103520009093CA0108951092CA0108958093B90139
:1035300008951092B901089540910E0150910F0124
:1035400020E030E080E0FA01E20FF31F9181911159
:103550008F5F2F5F3F4F2F303105A9F70895E0911E
:103560000E01F0910F018091CC018083E0910E015A
:10357000F0910F0180819091CB01892B8083E091A4
:103580000E01F0910F0180819091CA01892B8083F7
:103590009091B901992361F0E0910E01F0910F0132
:1035A0008081892B80830E949C1A81111092B9011D
:1035B00080910E0190910F010C94F60ECF92DF9244
:1035C000EF92FF920F931F936C01EE24FF24C1141E
:1035D000D104E104F10421F46B017C0180E001C01D
:1035E00080E133272F2D1E2D0D2D011511052105ED
:1035F000310519F0885F6801790197018601A4E01F
:103600003695279517950795AA95D1F701151105B8
:103610002105310519F08C5F680179019701860158
:10362000F2E03695279517950795FA95D1F701158C
:1036300011052105310519F08E5F68017901B70187
:10364000A6017695679557954795452B462B472BB1
:1036500009F08F5F1F910F91FF90EF90DF90CF9057
:1036600008958091E401843021F11092CE0120E48C
:1036700088E190E00FB6F894A895809360000FBEA3
:103680002093600080E00E94EF0783B7817F846011
:1036900083BF83B7816083BF7894889583B78E7F1B
:1036A00083BF88E10FB6F8948093600010926000A9
:1036B0000FBE089508950895CF930E945A1B0E944B
:1036C00023040E945B1BC0E08C2F0E941005811117
:1036D00005C0CF5FCE30C1F780E001C081E0CF915F
:1036E00008950E946D140E94EA0E0C94EF0782E088
:1036F00084BD93E095BD9AEF97BD80936E000895C9
:103700002FB7F8948091CF019091D001A091D10171
:10371000B091D2012FBF0895CF92DF92EF92FF9226
:103720000F931F932FB7F8944091CF015091D00180
:103730006091D1017091D2012FBF6A017B01EE240B
:10374000FF248C0120E030E0C016D106E206F3062B
:1037500010F441505109481B590BCA011F910F9198
:10376000FF90EF90DF90CF9008951F920F920FB6C9
:103770000F9211248F939F93AF93BF938091CF01AA
:103780009091D001A091D101B091D2010196A11DDB
:10379000B11D8093CF019093D001A093D101B0933C
:1037A000D201BF91AF919F918F910F900FBE0F905B
:1037B0001F9018950E94F00BF8942FEF87EA91E67E
:1037C000215080409040E1F700C0000087E090EB7E
:1037D000DC018093EE019093EF01A093F001B09390
:1037E000F1012CE088E190E00FB6F894A895809361
:1037F00060000FBE20936000FFCFEF92FF920F9307
:103800001F93CF93DF93E82EF12C8F2D0E9410058C
:10381000C0E0D0E0082F10E098010C2E02C03595D2
:1038200027950A94E2F720FD05C02196C630D10500
:1038300099F709C06C2F7F2D80E00E941805E812CF
:10384000F4CF81E005C0F3948EE0F812DECF80E083
:10385000DF91CF911F910F91FF90EF900895CF933B
:10386000C82F8CE20E94FD1B882321F08C2FCF9162
:103870000C94FD1B80E0CF910895CF930E94821D90
:10388000811102C00E94681DC5E6C15049F00E9426
:1038900023048FE39CE90197F1F700C00000F5CF06
:1038A00089E20E942F1C811111C18AE20E942F1C03
:1038B00081110E94681D85E00E942F1C81110E94C9
:1038C000DA1B0E948D1D8093CD0187E00E942F1C82
:1038D000882399F18BE10E942F1C882351F090914D
:1038E000CD0191FB882780F921E0822780FB91F9A7
:1038F00022C08EE00E942F1C882351F09091CD01B0
:1039000092FB882780F921E0822780FB92F913C07F
:1039100080E10E942F1C9091CD01882341F093FB00
:10392000882780F921E0822780FB93F904C0892F42
:10393000809580FB90F99093CD018091CD010E94FC
:10394000911D0E949F1D8093ED0180EE0E942F1C0F
:10395000882341F08091ED01982F909590FB80F99C
:103960008093ED0189E30E942F1C882359F09091E8
:10397000ED0191FB882780F921E0822780FB91F9F6
:103980009093ED0182EE0E942F1C882359F09091B4
:10399000ED0192FB882780F921E0822780FB92F9D4
:1039A0009093ED0186EE0E942F1C882359F0909190
:1039B000ED0193FB882780F921E0822780FB93F9B2
:1039C0009093ED0183EE0E942F1C882359F0909173
:1039D000ED0194FB882780F921E0822780FB94F990
:1039E0009093ED0185E30E942F1C882359F090915C
:1039F000ED0195FB882780F921E0822780FB95F96E
:103A00009093ED0181E30E942F1C882359F090913F
:103A1000ED0196FB882780F921E0822780FB96F94B
:103A20009093ED0181E10E942F1C882359F0909121
:103A3000ED0197FB882780F921E0822780FB97F929
:103A40009093ED018091ED010E94A31D8091ED0105
:103A500087FB882780F980930D0187E20E942F1C45
:103A6000C82F8EE10E942F1C8111C2608FE10E943D
:103A70002F1C8111C46080E20E942F1C8111C8603C
:103A800081E20E942F1C8111C06182E20E942F1CE2
:103A90008111C06283E20E942F1C8111C06484E204
:103AA0000E942F1C882311F0C06802C0CC2329F08B
:103AB0008C2F0E949A1D6C2F03C00E94961D682FA8
:103AC00070E080E090E0CF910C946918CF91089558
:103AD0006DEE7EEF80E090E00E94BC2360E082E02B
:103AE00090E00E94AE2360E083E090E00E94AE236D
:103AF00060E084E090E00E94AE2360E085E090E02A
:103B00000C94AE2380E090E00E94A82321E08D3E3B
:103B10009E4F09F020E0822F089582E090E00C94FF
:103B2000A023682F82E090E00C94AE2383E090E025
:103B30000C94A023682F83E090E00C94AE2384E0E3
:103B400090E00C94A023682F84E090E00C94AE23C6
:103B50008091D50180FF0BC06091130185E0689FC3
:103B6000B001112475956795759567952AC081FFF9
:103B700009C06091130185E0689FB001112475951B
:103B800067951FC082FF07C06091130185E0689FA1
:103B9000B001112416C04091D6014423C9F06091B0
:103BA0001201461788F72091130185E0289F9001A4
:103BB0001124429FC001439F900D112470E00E9488
:103BC00072236038710540F46115710539F002C047
:103BD00065E070E0862F08958FE7089581E00895ED
:103BE0008091D50180FF08C06091110170E075954A
:103BF00067957595679521C081FF06C06091110199
:103C000070E07595679519C082FF04C0609111013D
:103C100070E010C08091D6018823C1F0609110013E
:103C20008617A0F790911101989FC001112470E0B0
:103C30000E9472236038710528F46115710521F026
:103C4000862F08958FE7089581E0089561E070E080
:103C5000F4CF803F21F40E94A81D819504C0813FCC
:103C600029F40E94A81D8093D9010895823F21F470
:103C70000E94A81D819504C0833F29F40E94A81DBD
:103C80008093D8010895893F19F40E94F01D05C062
:103C90008A3F31F40E94F01D81958093DA010895E6
:103CA0008B3F21F40E94F01D819504C08C3F29F4C4
:103CB0000E94F01D8093DB010895843F21F48091E0
:103CC000D701816017C0853F21F48091D7018260C0
:103CD00011C0863F21F48091D70184600BC0873FDB
:103CE00021F48091D701886005C0883F31F480912C
:103CF000D70180618093D70108958D3F21F4809191
:103D0000D50181600BC08E3F21F48091D501826086
:103D100005C08F3F29F48091D50184608093D5013F
:103D20000895803F39F48091D90187FF6CC01092CB
:103D3000D90169C0813F29F48091D9011816BCF3DB
:103D400062C09091D801823F29F497FF5CC0109225
:103D5000D80159C0833F19F41916CCF354C0893FD8
:103D600041F48091DA0118160CF04DC01092DA017E
:103D70004AC08A3F29F48091DA0187FF44C0F6CF18
:103D80008B3F39F48091DB0187FF3DC01092DB014E
:103D90003AC08C3F29F48091DB011816BCF333C084
:103DA000843F21F48091D7018E7F17C0853F21F495
:103DB0008091D7018D7F11C0863F21F48091D7017A
:103DC0008B7F0BC0873F21F48091D701877F05C08F
:103DD000883F31F48091D7018F7E8093D70113C043
:103DE0008D3F21F48091D5018E7F0BC08E3F21F451
:103DF0008091D5018D7F05C08F3F29F48091D50139
:103E00008B7F8093D5018091D80181110EC0809164
:103E1000D90181110AC08091DA01811106C0809117
:103E2000DB01811102C01092D601089587ED91E067
:103E30000E94010F0E94801B9093D4018093D301B4
:103E400008951F93CF93DF938091D3019091D40174
:103E50000E948C1B4091D601442321F02091140133
:103E600030E006C0209115015AE0259F90011124F1
:103E70008217930708F482C08091D8011091D9016C
:103E8000D091DA01C091DB01811107C0111105C089
:103E9000D11103C0CC2309F471C04F3F19F04F5F1B
:103EA0004093D601181624F40E94A81D8093D801CF
:103EB0008091D80187FF05C00E94A81D819580933D
:103EC000D801111624F40E94A81D8093D901809175
:103ED000D90187FF05C00E94A81D81958093D90153
:103EE0006091D801662339F11091D901112319F19C
:103EF000772767FD7095872F972F0E94832223E3F2
:103F000033E343E35FE30E94E7220E945022609381
:103F1000D801612F772767FD7095872F972F0E9413
:103F2000832223E333E343E35FE30E94E7220E941B
:103F300050226093D9011D1624F40E94F01D809335
:103F4000DA018091DA0187FF05C00E94F01D81959A
:103F50008093DA011C1624F40E94F01D8093DB018B
:103F60008091DB0187FF05C00E94F01D8195809341
:103F7000DB01DF91CF911F910C94161FDF91CF9140
:103F80001F910895E7EDF1E085E0DF011D928A952C
:103F9000E9F71092D6011092D5010895833081F18E
:103FA00028F4813059F08230D1F00895853009F439
:103FB00049C0B8F1863009F456C008952091150122
:103FC000862F90E0820F911D8F3F910520F4620FA4
:103FD0006093150108958FEF809315010895209146
:103FE0001401862F90E0820F911D8F3F910520F4E0
:103FF000620F6093140108958FEF80931401089568
:1040000020911301862F90E0820F911D8F3F910523
:1040100020F4620F6093130108958FEF80931301D2
:10402000089520911201862F90E0820F911D8F3FFD
:10403000910520F4620F6093120108958FEF809331
:104040001201089520911101862F90E0820F911D99
:104050008F3F910520F4620F6093110108958FEF57
:1040600080931101089520911001862F90E0820F16
:10407000911D8F3F910520F4620F60931001089508
:104080008FEF809310010895833011F128F481306F
:1040900049F0823091F00895853081F120F1863029
:1040A000C1F1089580911501681720F4861B809353
:1040B0001501089510921501089580911401681753
:1040C00020F4861B80931401089510921401089522
:1040D00080911301681720F4861B809313010895C3
:1040E00010921301089580911201681720F4861B25
:1040F0008093120108951092120108958091110188
:10410000681720F4861B8093110108951092110105
:10411000089580911001681720F4861B8093100188
:1041200008951092100108958D3109F442C020F5D0
:104130008E3009F477C070F4873009F459C018F450
:104140008630F1F134C0883009F4A8C08B3009F40E
:10415000A5C02DC0863109F4A1C038F4803109F41E
:1041600072C0813109F479C022C0893109F496C046
:104170008B3109F44DC01BC0853309F487C048F466
:10418000873209F483C008F473C0893209F47EC011
:104190000EC0833438F48A3308F068C0883309F4D9
:1041A0007DC005C0833409F471C0883499F080E083
:1041B00008950E940A220E94EA0E0E94EF076EC034
:1041C0008091CD01817F8E7F8093CD0181E08093AE
:1041D000DD0108950E946D142FEF83ED90E32150CF
:1041E00080409040E1F700C000000E94DA1B56C0FA
:1041F0009091CD01892F8095817080FB90F919F005
:10420000966098601DC0997F977F9093CD0146C0BE
:104210009091CD0191FB882780F921E0822780FBD6
:1042200091F909C09091CD0192FB882780F921E096
:10423000822780FB92F99093CD01882379F19160D8
:104240009093CD0108959091CD0193FB882780F93B
:1042500021E0822780FB93F9EECF0E946D148091BC
:104260000D0191E0892780930D0118C027EC01C052
:1042700023EE280F61E070E080E090E004C0660F5C
:10428000771F881F991F2A95D2F704C061E070E05C
:1042900080E090E00E9469180E946D1481E008950A
:1042A00080E0089580E00895CF93C82F8091DD01CC
:1042B000813079F018F08230D1F184C0A0910E01E4
:1042C000B0910F018C91813169F0823209F07CC08C
:1042D00009C0A0910E01B0910F018C91813111F0B4
:1042E000823249F48C2F0E94502181111DC08C2FE5
:1042F0000E9494201AC08C2F0E945221811114C058
:10430000C43179F048F4CB3079F0C03109F060C0A5
:1043100082E08093DD0108C0C93219F0C83321F072
:1043200057C01092DD0154C081E0817053C0C93282
:1043300089F118F5C43171F1A8F4C73009F046C00D
:104340008AE08093150194E19093140193E0909397
:1043500013018093120188E08093110188E2809319
:10436000100134C0CE51C63088F5EC2FF0E0E65D88
:10437000FE4F80818093DC0129C0CE34E9F020F427
:10438000CB3421F56AE013C0C13579F0C235F1F4C0
:1043900061E00DC08091DC01882319F01092DC01EE
:1043A00015C081E08093DD0115C061E006C08091F9
:1043B000DC010E94CE1F0AC06AE08091DC010E94ED
:1043C000442004C01092DD0180E004C081E002C0FE
:1043D00080E0ABCFCF910895E1E8F0E08081886084
:1043E00080838081816080838FB7F89493E090937D
:1043F000890090ED909388008FBF0895EFE6F0E07C
:104400008081826080830895EFE6F0E080818D7F77
:1044100080830895EFE6F0E0808192E08927808331
:1044200008951F920F920FB60F9211242F933F936E
:104430004F935F936F937F938F939F93AF93BF93AC
:10444000EF93FF938091DE019091DF0101969093AD
:10445000DF018093DE01811103C082E00E94EF073B
:10446000E091DF01E695E695F0E0E657FB4FE49139
:104470008091DE018E1303C080E00E94EF07FF9160
:10448000EF91BF91AF919F918F917F916F915F91CC
:104490004F913F912F910F900FBE0F901F90189545
:1044A00004D06894B1118DC0089570D088F09F57E2
:1044B00090F0B92F9927B751A0F0D1F0660F771F70
:1044C000881F991F1AF0BA95C9F712C0B13081F050
:1044D00077D0B1E0089574C0672F782F8827B85F30
:1044E00039F0B93FCCF3869577956795B395D9F7B1
:1044F0003EF490958095709561957F4F8F4F9F4FBB
:104500000895E89409C097FB3EF4909580957095C6
:1045100061957F4F8F4F9F4F9923A9F0F92F96E90F
:10452000BB279395F695879577956795B795F11184
:10453000F8CFFAF4BB0F11F460FF1BC06F5F7F4F21
:104540008F4F9F4F16C0882311F096E911C0772333
:1045500021F09EE8872F762F05C0662371F096E83C
:10456000862F70E060E02AF09A95660F771F881F0B
:10457000DAF7880F9695879597F9089557FD905823
:10458000440F551F59F05F3F71F04795880F97FB17
:10459000991F61F09F3F79F08795089512161306D1
:1045A0001406551FF2CF4695F1DF08C01616170600
:1045B0001806991FF1CF8695710561050894089535
:1045C000E894BB2766277727CB0197F908950BD08E
:1045D00078C069D028F06ED018F0952309F05AC041
:1045E0005FC01124EECFCADFA0F3959FD1F3950FE2
:1045F00050E0551F629FF001729FBB27F00DB11D67
:10460000639FAA27F00DB11DAA1F649F6627B00DF6
:10461000A11D661F829F2227B00DA11D621F739FDF
:10462000B00DA11D621F839FA00D611D221F749FED
:104630003327A00D611D231F849F600D211D822F34
:10464000762F6A2F11249F5750408AF0E1F088237B
:104650004AF0EE0FFF1FBB1F661F771F881F915088
:104660005040A9F79E3F510570F014C0AACF5F3F9C
:10467000ECF3983EDCF3869577956795B795F795BB
:10468000E7959F5FC1F7FE2B880F911D9695879543
:1046900097F9089597F99F6780E870E060E00895C2
:1046A0009FEF80EC089500240A941616170618064A
:1046B0000906089500240A94121613061406050626
:1046C0000895092E0394000C11F4882352F0BB0FB7
:1046D00040F4BF2B11F460FF04C06F5F7F4F8F4F1A
:1046E0009F4F089597FB072E16F4009407D077FD8F
:1046F00009D00E948C2307FC05D03EF4909581954B
:104700009F4F0895709561957F4F0895EE0FFF1F9D
:104710000590F491E02D0994AA1BBB1B51E107C041
:10472000AA1FBB1FA617B70710F0A61BB70B881F41
:10473000991F5A95A9F780959095BC01CD010895D0
:10474000F999FECF92BD81BDF89A992780B5089559
:10475000A8E1B0E042E050E00C94C323262FF99981
:10476000FECF1FBA92BD81BD20BD0FB6F894FA9A54
:10477000F99A0FBE019608950E94AE23272F0C943C
:10478000AF23DC01CB01FC01F999FECF06C0F2BDDD
:10479000E1BDF89A319600B40D9241505040B8F7FF
:0647A0000895F894FFCF1C
:1047A6002002F1077E085B082708F4070101BA0119
:1047B60028080A03140A3F4D36394B04FE03C80382
:1047C6008F0322033B0354036D0301020304050612
:0447D60007080900C7
:00000001FF
